{
  "_format": "hh-sol-artifact-1",
  "contractName": "Event",
  "sourceName": "contracts/Event.sol",
  "abi": [
    {
      "inputs": [
        {
          "internalType": "string",
          "name": "_name",
          "type": "string"
        },
        {
          "internalType": "uint256",
          "name": "_date",
          "type": "uint256"
        },
        {
          "internalType": "uint256",
          "name": "_price",
          "type": "uint256"
        },
        {
          "internalType": "uint256",
          "name": "_supply",
          "type": "uint256"
        },
        {
          "internalType": "address",
          "name": "_organizer",
          "type": "address"
        },
        {
          "internalType": "string",
          "name": "_metadata",
          "type": "string"
        }
      ],
      "stateMutability": "nonpayable",
      "type": "constructor"
    },
    {
      "anonymous": false,
      "inputs": [
        {
          "indexed": true,
          "internalType": "address",
          "name": "owner",
          "type": "address"
        },
        {
          "indexed": true,
          "internalType": "address",
          "name": "approved",
          "type": "address"
        },
        {
          "indexed": true,
          "internalType": "uint256",
          "name": "tokenId",
          "type": "uint256"
        }
      ],
      "name": "Approval",
      "type": "event"
    },
    {
      "anonymous": false,
      "inputs": [
        {
          "indexed": true,
          "internalType": "address",
          "name": "owner",
          "type": "address"
        },
        {
          "indexed": true,
          "internalType": "address",
          "name": "operator",
          "type": "address"
        },
        {
          "indexed": false,
          "internalType": "bool",
          "name": "approved",
          "type": "bool"
        }
      ],
      "name": "ApprovalForAll",
      "type": "event"
    },
    {
      "anonymous": false,
      "inputs": [
        {
          "indexed": true,
          "internalType": "address",
          "name": "seller",
          "type": "address"
        },
        {
          "indexed": true,
          "internalType": "uint256",
          "name": "ticketId",
          "type": "uint256"
        }
      ],
      "name": "ListingCancelled",
      "type": "event"
    },
    {
      "anonymous": false,
      "inputs": [
        {
          "indexed": true,
          "internalType": "address",
          "name": "organizer",
          "type": "address"
        },
        {
          "indexed": false,
          "internalType": "string",
          "name": "metadataURI",
          "type": "string"
        }
      ],
      "name": "MetadataUpdated",
      "type": "event"
    },
    {
      "anonymous": false,
      "inputs": [
        {
          "indexed": true,
          "internalType": "address",
          "name": "seller",
          "type": "address"
        },
        {
          "indexed": true,
          "internalType": "uint256",
          "name": "ticketId",
          "type": "uint256"
        },
        {
          "indexed": false,
          "internalType": "uint256",
          "name": "price",
          "type": "uint256"
        },
        {
          "indexed": false,
          "internalType": "uint256",
          "name": "expiresAt",
          "type": "uint256"
        }
      ],
      "name": "TicketListed",
      "type": "event"
    },
    {
      "anonymous": false,
      "inputs": [
        {
          "indexed": true,
          "internalType": "address",
          "name": "buyer",
          "type": "address"
        },
        {
          "indexed": true,
          "internalType": "uint256",
          "name": "ticketId",
          "type": "uint256"
        }
      ],
      "name": "TicketPurchased",
      "type": "event"
    },
    {
      "anonymous": false,
      "inputs": [
        {
          "indexed": true,
          "internalType": "address",
          "name": "buyer",
          "type": "address"
        },
        {
          "indexed": true,
          "internalType": "address",
          "name": "seller",
          "type": "address"
        },
        {
          "indexed": true,
          "internalType": "uint256",
          "name": "ticketId",
          "type": "uint256"
        },
        {
          "indexed": false,
          "internalType": "uint256",
          "name": "price",
          "type": "uint256"
        }
      ],
      "name": "TicketSale",
      "type": "event"
    },
    {
      "anonymous": false,
      "inputs": [
        {
          "indexed": true,
          "internalType": "address",
          "name": "from",
          "type": "address"
        },
        {
          "indexed": true,
          "internalType": "address",
          "name": "to",
          "type": "address"
        },
        {
          "indexed": true,
          "internalType": "uint256",
          "name": "ticketId",
          "type": "uint256"
        }
      ],
      "name": "TicketTransferred",
      "type": "event"
    },
    {
      "anonymous": false,
      "inputs": [
        {
          "indexed": true,
          "internalType": "address",
          "name": "from",
          "type": "address"
        },
        {
          "indexed": true,
          "internalType": "address",
          "name": "to",
          "type": "address"
        },
        {
          "indexed": true,
          "internalType": "uint256",
          "name": "tokenId",
          "type": "uint256"
        }
      ],
      "name": "Transfer",
      "type": "event"
    },
    {
      "inputs": [
        {
          "internalType": "address",
          "name": "to",
          "type": "address"
        },
        {
          "internalType": "uint256",
          "name": "tokenId",
          "type": "uint256"
        }
      ],
      "name": "approve",
      "outputs": [],
      "stateMutability": "nonpayable",
      "type": "function"
    },
    {
      "inputs": [
        {
          "internalType": "address",
          "name": "owner",
          "type": "address"
        }
      ],
      "name": "balanceOf",
      "outputs": [
        {
          "internalType": "uint256",
          "name": "",
          "type": "uint256"
        }
      ],
      "stateMutability": "view",
      "type": "function"
    },
    {
      "inputs": [
        {
          "internalType": "uint256",
          "name": "tokenId",
          "type": "uint256"
        }
      ],
      "name": "buyListedTicket",
      "outputs": [],
      "stateMutability": "payable",
      "type": "function"
    },
    {
      "inputs": [],
      "name": "buyTicket",
      "outputs": [],
      "stateMutability": "payable",
      "type": "function"
    },
    {
      "inputs": [
        {
          "internalType": "uint256",
          "name": "tokenId",
          "type": "uint256"
        }
      ],
      "name": "cancelListing",
      "outputs": [],
      "stateMutability": "nonpayable",
      "type": "function"
    },
    {
      "inputs": [],
      "name": "eventDate",
      "outputs": [
        {
          "internalType": "uint256",
          "name": "",
          "type": "uint256"
        }
      ],
      "stateMutability": "view",
      "type": "function"
    },
    {
      "inputs": [],
      "name": "eventMetadataURI",
      "outputs": [
        {
          "internalType": "string",
          "name": "",
          "type": "string"
        }
      ],
      "stateMutability": "view",
      "type": "function"
    },
    {
      "inputs": [],
      "name": "eventName",
      "outputs": [
        {
          "internalType": "string",
          "name": "",
          "type": "string"
        }
      ],
      "stateMutability": "view",
      "type": "function"
    },
    {
      "inputs": [
        {
          "internalType": "uint256",
          "name": "tokenId",
          "type": "uint256"
        }
      ],
      "name": "getApproved",
      "outputs": [
        {
          "internalType": "address",
          "name": "",
          "type": "address"
        }
      ],
      "stateMutability": "view",
      "type": "function"
    },
    {
      "inputs": [
        {
          "internalType": "uint256",
          "name": "tokenId",
          "type": "uint256"
        }
      ],
      "name": "getListing",
      "outputs": [
        {
          "components": [
            {
              "internalType": "address",
              "name": "seller",
              "type": "address"
            },
            {
              "internalType": "uint256",
              "name": "price",
              "type": "uint256"
            },
            {
              "internalType": "uint256",
              "name": "expiresAt",
              "type": "uint256"
            }
          ],
          "internalType": "struct Event.Listing",
          "name": "",
          "type": "tuple"
        }
      ],
      "stateMutability": "view",
      "type": "function"
    },
    {
      "inputs": [],
      "name": "getMyTickets",
      "outputs": [
        {
          "internalType": "uint256[]",
          "name": "",
          "type": "uint256[]"
        }
      ],
      "stateMutability": "view",
      "type": "function"
    },
    {
      "inputs": [],
      "name": "getSoldTickets",
      "outputs": [
        {
          "internalType": "uint256[]",
          "name": "",
          "type": "uint256[]"
        }
      ],
      "stateMutability": "view",
      "type": "function"
    },
    {
      "inputs": [
        {
          "internalType": "address",
          "name": "owner",
          "type": "address"
        },
        {
          "internalType": "address",
          "name": "operator",
          "type": "address"
        }
      ],
      "name": "isApprovedForAll",
      "outputs": [
        {
          "internalType": "bool",
          "name": "",
          "type": "bool"
        }
      ],
      "stateMutability": "view",
      "type": "function"
    },
    {
      "inputs": [
        {
          "internalType": "uint256",
          "name": "tokenId",
          "type": "uint256"
        },
        {
          "internalType": "uint256",
          "name": "price",
          "type": "uint256"
        },
        {
          "internalType": "uint256",
          "name": "expiresAt",
          "type": "uint256"
        }
      ],
      "name": "listTicket",
      "outputs": [],
      "stateMutability": "nonpayable",
      "type": "function"
    },
    {
      "inputs": [
        {
          "internalType": "uint256",
          "name": "",
          "type": "uint256"
        }
      ],
      "name": "listings",
      "outputs": [
        {
          "internalType": "address",
          "name": "seller",
          "type": "address"
        },
        {
          "internalType": "uint256",
          "name": "price",
          "type": "uint256"
        },
        {
          "internalType": "uint256",
          "name": "expiresAt",
          "type": "uint256"
        }
      ],
      "stateMutability": "view",
      "type": "function"
    },
    {
      "inputs": [],
      "name": "maxSupply",
      "outputs": [
        {
          "internalType": "uint256",
          "name": "",
          "type": "uint256"
        }
      ],
      "stateMutability": "view",
      "type": "function"
    },
    {
      "inputs": [],
      "name": "name",
      "outputs": [
        {
          "internalType": "string",
          "name": "",
          "type": "string"
        }
      ],
      "stateMutability": "view",
      "type": "function"
    },
    {
      "inputs": [],
      "name": "organizer",
      "outputs": [
        {
          "internalType": "address",
          "name": "",
          "type": "address"
        }
      ],
      "stateMutability": "view",
      "type": "function"
    },
    {
      "inputs": [
        {
          "internalType": "uint256",
          "name": "tokenId",
          "type": "uint256"
        }
      ],
      "name": "ownerOf",
      "outputs": [
        {
          "internalType": "address",
          "name": "",
          "type": "address"
        }
      ],
      "stateMutability": "view",
      "type": "function"
    },
    {
      "inputs": [
        {
          "internalType": "address",
          "name": "from",
          "type": "address"
        },
        {
          "internalType": "address",
          "name": "to",
          "type": "address"
        },
        {
          "internalType": "uint256",
          "name": "tokenId",
          "type": "uint256"
        }
      ],
      "name": "safeTransferFrom",
      "outputs": [],
      "stateMutability": "nonpayable",
      "type": "function"
    },
    {
      "inputs": [
        {
          "internalType": "address",
          "name": "from",
          "type": "address"
        },
        {
          "internalType": "address",
          "name": "to",
          "type": "address"
        },
        {
          "internalType": "uint256",
          "name": "tokenId",
          "type": "uint256"
        },
        {
          "internalType": "bytes",
          "name": "data",
          "type": "bytes"
        }
      ],
      "name": "safeTransferFrom",
      "outputs": [],
      "stateMutability": "nonpayable",
      "type": "function"
    },
    {
      "inputs": [
        {
          "internalType": "address",
          "name": "operator",
          "type": "address"
        },
        {
          "internalType": "bool",
          "name": "approved",
          "type": "bool"
        }
      ],
      "name": "setApprovalForAll",
      "outputs": [],
      "stateMutability": "nonpayable",
      "type": "function"
    },
    {
      "inputs": [
        {
          "internalType": "string",
          "name": "_metadataURI",
          "type": "string"
        }
      ],
      "name": "setMetadataURI",
      "outputs": [],
      "stateMutability": "nonpayable",
      "type": "function"
    },
    {
      "inputs": [],
      "name": "sold",
      "outputs": [
        {
          "internalType": "uint256",
          "name": "",
          "type": "uint256"
        }
      ],
      "stateMutability": "view",
      "type": "function"
    },
    {
      "inputs": [
        {
          "internalType": "bytes4",
          "name": "interfaceId",
          "type": "bytes4"
        }
      ],
      "name": "supportsInterface",
      "outputs": [
        {
          "internalType": "bool",
          "name": "",
          "type": "bool"
        }
      ],
      "stateMutability": "view",
      "type": "function"
    },
    {
      "inputs": [],
      "name": "symbol",
      "outputs": [
        {
          "internalType": "string",
          "name": "",
          "type": "string"
        }
      ],
      "stateMutability": "view",
      "type": "function"
    },
    {
      "inputs": [],
      "name": "ticketPrice",
      "outputs": [
        {
          "internalType": "uint256",
          "name": "",
          "type": "uint256"
        }
      ],
      "stateMutability": "view",
      "type": "function"
    },
    {
      "inputs": [
        {
          "internalType": "uint256",
          "name": "tokenId",
          "type": "uint256"
        }
      ],
      "name": "tokenURI",
      "outputs": [
        {
          "internalType": "string",
          "name": "",
          "type": "string"
        }
      ],
      "stateMutability": "view",
      "type": "function"
    },
    {
      "inputs": [
        {
          "internalType": "address",
          "name": "from",
          "type": "address"
        },
        {
          "internalType": "address",
          "name": "to",
          "type": "address"
        },
        {
          "internalType": "uint256",
          "name": "tokenId",
          "type": "uint256"
        }
      ],
      "name": "transferFrom",
      "outputs": [],
      "stateMutability": "nonpayable",
      "type": "function"
    },
    {
      "inputs": [
        {
          "internalType": "address",
          "name": "to",
          "type": "address"
        },
        {
          "internalType": "uint256",
          "name": "ticketId",
          "type": "uint256"
        }
      ],
      "name": "transferTicket",
      "outputs": [],
      "stateMutability": "nonpayable",
      "type": "function"
    }
  ],
  "bytecode": "0x60806040523480156200001157600080fd5b5060405162004f4b38038062004f4b83398181016040528101906200003791906200038a565b6040518060400160405280600b81526020017f4576656e745469636b65740000000000000000000000000000000000000000008152506040518060400160405280600481526020017f45544958000000000000000000000000000000000000000000000000000000008152508160009081620000b49190620006a5565b508060019081620000c69190620006a5565b50505060016006819055508560079081620000e29190620006a5565b50846008819055508360098190555082600a8190555081600c60006101000a81548173ffffffffffffffffffffffffffffffffffffffff021916908373ffffffffffffffffffffffffffffffffffffffff16021790555080600d90816200014a9190620006a5565b505050505050506200078c565b6000604051905090565b600080fd5b600080fd5b600080fd5b600080fd5b6000601f19601f8301169050919050565b7f4e487b7100000000000000000000000000000000000000000000000000000000600052604160045260246000fd5b620001c08262000175565b810181811067ffffffffffffffff82111715620001e257620001e162000186565b5b80604052505050565b6000620001f762000157565b9050620002058282620001b5565b919050565b600067ffffffffffffffff82111562000228576200022762000186565b5b620002338262000175565b9050602081019050919050565b60005b838110156200026057808201518184015260208101905062000243565b60008484015250505050565b6000620002836200027d846200020a565b620001eb565b905082815260208101848484011115620002a257620002a162000170565b5b620002af84828562000240565b509392505050565b600082601f830112620002cf57620002ce6200016b565b5b8151620002e18482602086016200026c565b91505092915050565b6000819050919050565b620002ff81620002ea565b81146200030b57600080fd5b50565b6000815190506200031f81620002f4565b92915050565b600073ffffffffffffffffffffffffffffffffffffffff82169050919050565b6000620003528262000325565b9050919050565b620003648162000345565b81146200037057600080fd5b50565b600081519050620003848162000359565b92915050565b60008060008060008060c08789031215620003aa57620003a962000161565b5b600087015167ffffffffffffffff811115620003cb57620003ca62000166565b5b620003d989828a01620002b7565b9650506020620003ec89828a016200030e565b9550506040620003ff89828a016200030e565b94505060606200041289828a016200030e565b93505060806200042589828a0162000373565b92505060a087015167ffffffffffffffff81111562000449576200044862000166565b5b6200045789828a01620002b7565b9150509295509295509295565b600081519050919050565b7f4e487b7100000000000000000000000000000000000000000000000000000000600052602260045260246000fd5b60006002820490506001821680620004b757607f821691505b602082108103620004cd57620004cc6200046f565b5b50919050565b60008190508160005260206000209050919050565b60006020601f8301049050919050565b600082821b905092915050565b600060088302620005377fffffffffffffffffffffffffffffffffffffffffffffffffffffffffffffffff82620004f8565b620005438683620004f8565b95508019841693508086168417925050509392505050565b6000819050919050565b600062000586620005806200057a84620002ea565b6200055b565b620002ea565b9050919050565b6000819050919050565b620005a28362000565565b620005ba620005b1826200058d565b84845462000505565b825550505050565b600090565b620005d1620005c2565b620005de81848462000597565b505050565b5b818110156200060657620005fa600082620005c7565b600181019050620005e4565b5050565b601f82111562000655576200061f81620004d3565b6200062a84620004e8565b810160208510156200063a578190505b620006526200064985620004e8565b830182620005e3565b50505b505050565b600082821c905092915050565b60006200067a600019846008026200065a565b1980831691505092915050565b600062000695838362000667565b9150826002028217905092915050565b620006b08262000464565b67ffffffffffffffff811115620006cc57620006cb62000186565b5b620006d882546200049e565b620006e58282856200060a565b600060209050601f8311600181146200071d576000841562000708578287015190505b62000714858262000687565b86555062000784565b601f1984166200072d86620004d3565b60005b82811015620007575784890151825560018201915060208501945060208101905062000730565b8683101562000777578489015162000773601f89168262000667565b8355505b6001600288020188555050505b505050505050565b6147af806200079c6000396000f3fe6080604052600436106101cd5760003560e01c806361203265116100f7578063b85e67af11610095578063de74e57b11610064578063de74e57b1461067b578063e1d10d85146106ba578063e985e9c5146106e5578063edca914c14610722576101cd565b8063b85e67af146105c1578063b88d4fde146105ea578063c87b56dd14610613578063d5abeb0114610650576101cd565b8063750521f5116100d1578063750521f5146105195780638043c9c01461054257806395d89b411461056d578063a22cb46514610598576101cd565b806361203265146104745780636352211e1461049f57806370a08231146104dc576101cd565b806323b872dd1161016f57806342842e0e1161013e57806342842e0e146103db5780634bfbe5df14610404578063502488531461042f57806351958a561461044b576101cd565b806323b872dd146103335780632955e0951461035c5780632aa51bdf14610387578063305a67a8146103b2576101cd565b8063081812fc116101ab578063081812fc14610265578063095ea7b3146102a2578063107a274a146102cb5780631209b1f614610308576101cd565b806301ffc9a7146101d257806302c7e7af1461020f57806306fdde031461023a575b600080fd5b3480156101de57600080fd5b506101f960048036038101906101f49190612e8b565b61072c565b6040516102069190612ed3565b60405180910390f35b34801561021b57600080fd5b5061022461080e565b6040516102319190612f07565b60405180910390f35b34801561024657600080fd5b5061024f610814565b60405161025c9190612fb2565b60405180910390f35b34801561027157600080fd5b5061028c60048036038101906102879190613000565b6108a6565b604051610299919061306e565b60405180910390f35b3480156102ae57600080fd5b506102c960048036038101906102c491906130b5565b6108ec565b005b3480156102d757600080fd5b506102f260048036038101906102ed9190613000565b610a03565b6040516102ff9190613155565b60405180910390f35b34801561031457600080fd5b5061031d610a9a565b60405161032a9190612f07565b60405180910390f35b34801561033f57600080fd5b5061035a60048036038101906103559190613170565b610aa0565b005b34801561036857600080fd5b50610371610b00565b60405161037e9190612fb2565b60405180910390f35b34801561039357600080fd5b5061039c610b8e565b6040516103a99190613272565b60405180910390f35b3480156103be57600080fd5b506103d960048036038101906103d49190613000565b610c76565b005b3480156103e757600080fd5b5061040260048036038101906103fd9190613170565b610db9565b005b34801561041057600080fd5b50610419610dd9565b6040516104269190612f07565b60405180910390f35b61044960048036038101906104449190613000565b610ddf565b005b34801561045757600080fd5b50610472600480360381019061046d91906130b5565b611163565b005b34801561048057600080fd5b5061048961132d565b604051610496919061306e565b60405180910390f35b3480156104ab57600080fd5b506104c660048036038101906104c19190613000565b611353565b6040516104d3919061306e565b60405180910390f35b3480156104e857600080fd5b5061050360048036038101906104fe9190613294565b6113d9565b6040516105109190612f07565b60405180910390f35b34801561052557600080fd5b50610540600480360381019061053b91906133f6565b611490565b005b34801561054e57600080fd5b50610557611581565b6040516105649190612fb2565b60405180910390f35b34801561057957600080fd5b5061058261160f565b60405161058f9190612fb2565b60405180910390f35b3480156105a457600080fd5b506105bf60048036038101906105ba919061346b565b6116a1565b005b3480156105cd57600080fd5b506105e860048036038101906105e391906134ab565b6116b7565b005b3480156105f657600080fd5b50610611600480360381019061060c919061359f565b611920565b005b34801561061f57600080fd5b5061063a60048036038101906106359190613000565b611982565b6040516106479190612fb2565b60405180910390f35b34801561065c57600080fd5b506106656119ea565b6040516106729190612f07565b60405180910390f35b34801561068757600080fd5b506106a2600480360381019061069d9190613000565b6119f0565b6040516106b193929190613622565b60405180910390f35b3480156106c657600080fd5b506106cf611a3a565b6040516106dc9190613272565b60405180910390f35b3480156106f157600080fd5b5061070c60048036038101906107079190613659565b611acf565b6040516107199190612ed3565b60405180910390f35b61072a611b63565b005b60007f80ac58cd000000000000000000000000000000000000000000000000000000007bffffffffffffffffffffffffffffffffffffffffffffffffffffffff1916827bffffffffffffffffffffffffffffffffffffffffffffffffffffffff191614806107f757507f5b5e139f000000000000000000000000000000000000000000000000000000007bffffffffffffffffffffffffffffffffffffffffffffffffffffffff1916827bffffffffffffffffffffffffffffffffffffffffffffffffffffffff1916145b80610807575061080682611e18565b5b9050919050565b600b5481565b606060008054610823906136c8565b80601f016020809104026020016040519081016040528092919081815260200182805461084f906136c8565b801561089c5780601f106108715761010080835404028352916020019161089c565b820191906000526020600020905b81548152906001019060200180831161087f57829003601f168201915b5050505050905090565b60006108b182611e82565b6004600083815260200190815260200160002060009054906101000a900473ffffffffffffffffffffffffffffffffffffffff169050919050565b60006108f782611353565b90508073ffffffffffffffffffffffffffffffffffffffff168373ffffffffffffffffffffffffffffffffffffffff1603610967576040517f08c379a000000000000000000000000000000000000000000000000000000000815260040161095e9061376b565b60405180910390fd5b8073ffffffffffffffffffffffffffffffffffffffff16610986611ecd565b73ffffffffffffffffffffffffffffffffffffffff1614806109b557506109b4816109af611ecd565b611acf565b5b6109f4576040517f08c379a00000000000000000000000000000000000000000000000000000000081526004016109eb906137fd565b60405180910390fd5b6109fe8383611ed5565b505050565b610a0b612de8565b601260008381526020019081526020016000206040518060600160405290816000820160009054906101000a900473ffffffffffffffffffffffffffffffffffffffff1673ffffffffffffffffffffffffffffffffffffffff1673ffffffffffffffffffffffffffffffffffffffff168152602001600182015481526020016002820154815250509050919050565b60095481565b610ab1610aab611ecd565b82611f8e565b610af0576040517f08c379a0000000000000000000000000000000000000000000000000000000008152600401610ae79061388f565b60405180910390fd5b610afb838383612023565b505050565b600d8054610b0d906136c8565b80601f0160208091040260200160405190810160405280929190818152602001828054610b39906136c8565b8015610b865780601f10610b5b57610100808354040283529160200191610b86565b820191906000526020600020905b815481529060010190602001808311610b6957829003601f168201915b505050505081565b6060600c60009054906101000a900473ffffffffffffffffffffffffffffffffffffffff1673ffffffffffffffffffffffffffffffffffffffff163373ffffffffffffffffffffffffffffffffffffffff1614610c20576040517f08c379a0000000000000000000000000000000000000000000000000000000008152600401610c17906138fb565b60405180910390fd5b600f805480602002602001604051908101604052809291908181526020018280548015610c6c57602002820191906000526020600020905b815481526020019060010190808311610c58575b5050505050905090565b3373ffffffffffffffffffffffffffffffffffffffff166012600083815260200190815260200160002060000160009054906101000a900473ffffffffffffffffffffffffffffffffffffffff1673ffffffffffffffffffffffffffffffffffffffff1614610d1a576040517f08c379a0000000000000000000000000000000000000000000000000000000008152600401610d1190613967565b60405180910390fd5b60126000828152602001908152602001600020600080820160006101000a81549073ffffffffffffffffffffffffffffffffffffffff0219169055600182016000905560028201600090555050610d726000826108ec565b803373ffffffffffffffffffffffffffffffffffffffff167f93ec4766fcd2d9dfdceab8f2e13ba0d9d826645cf03167fdb92b3b7359b5248c60405160405180910390a350565b610dd483838360405180602001604052806000815250611920565b505050565b60085481565b610de761231c565b6000601260008381526020019081526020016000206040518060600160405290816000820160009054906101000a900473ffffffffffffffffffffffffffffffffffffffff1673ffffffffffffffffffffffffffffffffffffffff1673ffffffffffffffffffffffffffffffffffffffff168152602001600182015481526020016002820154815250509050600073ffffffffffffffffffffffffffffffffffffffff16816000015173ffffffffffffffffffffffffffffffffffffffff1603610ee6576040517f08c379a0000000000000000000000000000000000000000000000000000000008152600401610edd906139d3565b60405180910390fd5b8060200151341015610f2d576040517f08c379a0000000000000000000000000000000000000000000000000000000008152600401610f2490613a3f565b60405180910390fd5b8060400151421115610f74576040517f08c379a0000000000000000000000000000000000000000000000000000000008152600401610f6b90613aab565b60405180910390fd5b60126000838152602001908152602001600020600080820160006101000a81549073ffffffffffffffffffffffffffffffffffffffff0219169055600182016000905560028201600090555050806000015173ffffffffffffffffffffffffffffffffffffffff166108fc349081150290604051600060405180830381858888f1935050505015801561100b573d6000803e3d6000fd5b5061101b81600001513384612023565b61102981600001518361236b565b601060003373ffffffffffffffffffffffffffffffffffffffff1673ffffffffffffffffffffffffffffffffffffffff168152602001908152602001600020805490506011600084815260200190815260200160002081905550601060003373ffffffffffffffffffffffffffffffffffffffff1673ffffffffffffffffffffffffffffffffffffffff16815260200190815260200160002082908060018154018082558091505060019003906000526020600020016000909190919091505581816000015173ffffffffffffffffffffffffffffffffffffffff163373ffffffffffffffffffffffffffffffffffffffff167f4b058505e890459f8ae31cb63e35e899d9e176ffc441ae5d72c19f0963785872846020015160405161114f9190612f07565b60405180910390a450611160612514565b50565b61116b61231c565b3373ffffffffffffffffffffffffffffffffffffffff1661118b82611353565b73ffffffffffffffffffffffffffffffffffffffff16146111e1576040517f08c379a00000000000000000000000000000000000000000000000000000000081526004016111d890613b17565b60405180910390fd5b6111fc3383836040518060200160405280600081525061251e565b611206338261236b565b601060008373ffffffffffffffffffffffffffffffffffffffff1673ffffffffffffffffffffffffffffffffffffffff168152602001908152602001600020805490506011600083815260200190815260200160002081905550601060008373ffffffffffffffffffffffffffffffffffffffff1673ffffffffffffffffffffffffffffffffffffffff168152602001908152602001600020819080600181540180825580915050600190039060005260206000200160009091909190915055808273ffffffffffffffffffffffffffffffffffffffff163373ffffffffffffffffffffffffffffffffffffffff167f17fe3deddce525fa12700a731e77ea94c319000ee656076e9e3f0d21638db76660405160405180910390a4611329612514565b5050565b600c60009054906101000a900473ffffffffffffffffffffffffffffffffffffffff1681565b60008061135f8361257a565b9050600073ffffffffffffffffffffffffffffffffffffffff168173ffffffffffffffffffffffffffffffffffffffff16036113d0576040517f08c379a00000000000000000000000000000000000000000000000000000000081526004016113c790613b83565b60405180910390fd5b80915050919050565b60008073ffffffffffffffffffffffffffffffffffffffff168273ffffffffffffffffffffffffffffffffffffffff1603611449576040517f08c379a000000000000000000000000000000000000000000000000000000000815260040161144090613c15565b60405180910390fd5b600360008373ffffffffffffffffffffffffffffffffffffffff1673ffffffffffffffffffffffffffffffffffffffff168152602001908152602001600020549050919050565b600c60009054906101000a900473ffffffffffffffffffffffffffffffffffffffff1673ffffffffffffffffffffffffffffffffffffffff163373ffffffffffffffffffffffffffffffffffffffff1614611520576040517f08c379a0000000000000000000000000000000000000000000000000000000008152600401611517906138fb565b60405180910390fd5b80600d908161152f9190613de1565b503373ffffffffffffffffffffffffffffffffffffffff167f2013570c343af8ab14a9778150e381a0fda34ed6368127a95fd5e7210cbec5bf826040516115769190612fb2565b60405180910390a250565b6007805461158e906136c8565b80601f01602080910402602001604051908101604052809291908181526020018280546115ba906136c8565b80156116075780601f106115dc57610100808354040283529160200191611607565b820191906000526020600020905b8154815290600101906020018083116115ea57829003601f168201915b505050505081565b60606001805461161e906136c8565b80601f016020809104026020016040519081016040528092919081815260200182805461164a906136c8565b80156116975780601f1061166c57610100808354040283529160200191611697565b820191906000526020600020905b81548152906001019060200180831161167a57829003601f168201915b5050505050905090565b6116b36116ac611ecd565b83836125b7565b5050565b3373ffffffffffffffffffffffffffffffffffffffff166116d784611353565b73ffffffffffffffffffffffffffffffffffffffff161461172d576040517f08c379a000000000000000000000000000000000000000000000000000000000815260040161172490613b17565b60405180910390fd5b60008211611770576040517f08c379a000000000000000000000000000000000000000000000000000000000815260040161176790613eff565b60405180910390fd5b4281116117b2576040517f08c379a00000000000000000000000000000000000000000000000000000000081526004016117a990613f6b565b60405180910390fd5b3073ffffffffffffffffffffffffffffffffffffffff166117d2846108a6565b73ffffffffffffffffffffffffffffffffffffffff1614611828576040517f08c379a000000000000000000000000000000000000000000000000000000000815260040161181f90613fd7565b60405180910390fd5b60405180606001604052803373ffffffffffffffffffffffffffffffffffffffff168152602001838152602001828152506012600085815260200190815260200160002060008201518160000160006101000a81548173ffffffffffffffffffffffffffffffffffffffff021916908373ffffffffffffffffffffffffffffffffffffffff1602179055506020820151816001015560408201518160020155905050823373ffffffffffffffffffffffffffffffffffffffff167f23eabf2c40b66d70a460306f57312cc811888a6af4853292637615aaaf3e531e8484604051611913929190613ff7565b60405180910390a3505050565b61193161192b611ecd565b83611f8e565b611970576040517f08c379a00000000000000000000000000000000000000000000000000000000081526004016119679061388f565b60405180910390fd5b61197c8484848461251e565b50505050565b606061198d82611e82565b6000611997612723565b905060008151116119b757604051806020016040528060008152506119e2565b806119c18461273a565b6040516020016119d292919061405c565b6040516020818303038152906040525b915050919050565b600a5481565b60126020528060005260406000206000915090508060000160009054906101000a900473ffffffffffffffffffffffffffffffffffffffff16908060010154908060020154905083565b6060601060003373ffffffffffffffffffffffffffffffffffffffff1673ffffffffffffffffffffffffffffffffffffffff168152602001908152602001600020805480602002602001604051908101604052809291908181526020018280548015611ac557602002820191906000526020600020905b815481526020019060010190808311611ab1575b5050505050905090565b6000600560008473ffffffffffffffffffffffffffffffffffffffff1673ffffffffffffffffffffffffffffffffffffffff16815260200190815260200160002060008373ffffffffffffffffffffffffffffffffffffffff1673ffffffffffffffffffffffffffffffffffffffff16815260200190815260200160002060009054906101000a900460ff16905092915050565b611b6b61231c565b600854421115611bb0576040517f08c379a0000000000000000000000000000000000000000000000000000000008152600401611ba7906140cc565b60405180910390fd5b600a54600b5410611bf6576040517f08c379a0000000000000000000000000000000000000000000000000000000008152600401611bed90614138565b60405180910390fd5b6009543414611c3a576040517f08c379a0000000000000000000000000000000000000000000000000000000008152600401611c31906141a4565b60405180910390fd5b6000600e60008154611c4b906141f3565b91905081905590506001600b6000828254611c66919061423b565b92505081905550611c773382612808565b600f819080600181540180825580915050600190039060005260206000200160009091909190915055601060003373ffffffffffffffffffffffffffffffffffffffff1673ffffffffffffffffffffffffffffffffffffffff168152602001908152602001600020805490506011600083815260200190815260200160002081905550601060003373ffffffffffffffffffffffffffffffffffffffff1673ffffffffffffffffffffffffffffffffffffffff168152602001908152602001600020819080600181540180825580915050600190039060005260206000200160009091909190915055600c60009054906101000a900473ffffffffffffffffffffffffffffffffffffffff1673ffffffffffffffffffffffffffffffffffffffff166108fc349081150290604051600060405180830381858888f19350505050158015611dc8573d6000803e3d6000fd5b50803373ffffffffffffffffffffffffffffffffffffffff167f0668f5b446eb814fe35b3206f43f14bd8567ba04ddaf7a3ee56516929ab22ccb60405160405180910390a350611e16612514565b565b60007f01ffc9a7000000000000000000000000000000000000000000000000000000007bffffffffffffffffffffffffffffffffffffffffffffffffffffffff1916827bffffffffffffffffffffffffffffffffffffffffffffffffffffffff1916149050919050565b611e8b81612826565b611eca576040517f08c379a0000000000000000000000000000000000000000000000000000000008152600401611ec190613b83565b60405180910390fd5b50565b600033905090565b816004600083815260200190815260200160002060006101000a81548173ffffffffffffffffffffffffffffffffffffffff021916908373ffffffffffffffffffffffffffffffffffffffff160217905550808273ffffffffffffffffffffffffffffffffffffffff16611f4883611353565b73ffffffffffffffffffffffffffffffffffffffff167f8c5be1e5ebec7d5bd14f71427d1e84f3dd0314c0f7b2291e5b200ac8c7c3b92560405160405180910390a45050565b600080611f9a83611353565b90508073ffffffffffffffffffffffffffffffffffffffff168473ffffffffffffffffffffffffffffffffffffffff161480611fdc5750611fdb8185611acf565b5b8061201a57508373ffffffffffffffffffffffffffffffffffffffff16612002846108a6565b73ffffffffffffffffffffffffffffffffffffffff16145b91505092915050565b8273ffffffffffffffffffffffffffffffffffffffff1661204382611353565b73ffffffffffffffffffffffffffffffffffffffff1614612099576040517f08c379a0000000000000000000000000000000000000000000000000000000008152600401612090906142e1565b60405180910390fd5b600073ffffffffffffffffffffffffffffffffffffffff168273ffffffffffffffffffffffffffffffffffffffff1603612108576040517f08c379a00000000000000000000000000000000000000000000000000000000081526004016120ff90614373565b60405180910390fd5b6121158383836001612867565b8273ffffffffffffffffffffffffffffffffffffffff1661213582611353565b73ffffffffffffffffffffffffffffffffffffffff161461218b576040517f08c379a0000000000000000000000000000000000000000000000000000000008152600401612182906142e1565b60405180910390fd5b6004600082815260200190815260200160002060006101000a81549073ffffffffffffffffffffffffffffffffffffffff02191690556001600360008573ffffffffffffffffffffffffffffffffffffffff1673ffffffffffffffffffffffffffffffffffffffff168152602001908152602001600020600082825403925050819055506001600360008473ffffffffffffffffffffffffffffffffffffffff1673ffffffffffffffffffffffffffffffffffffffff16815260200190815260200160002060008282540192505081905550816002600083815260200190815260200160002060006101000a81548173ffffffffffffffffffffffffffffffffffffffff021916908373ffffffffffffffffffffffffffffffffffffffff160217905550808273ffffffffffffffffffffffffffffffffffffffff168473ffffffffffffffffffffffffffffffffffffffff167fddf252ad1be2c89b69c2b068fc378daa952ba7f163c4a11628f55a4df523b3ef60405160405180910390a4612317838383600161286d565b505050565b600260065403612361576040517f08c379a0000000000000000000000000000000000000000000000000000000008152600401612358906143df565b60405180910390fd5b6002600681905550565b6000601160008381526020019081526020016000205490506000601060008573ffffffffffffffffffffffffffffffffffffffff1673ffffffffffffffffffffffffffffffffffffffff1681526020019081526020016000206001601060008773ffffffffffffffffffffffffffffffffffffffff1673ffffffffffffffffffffffffffffffffffffffff1681526020019081526020016000208054905061241391906143ff565b8154811061242457612423614433565b5b9060005260206000200154905080601060008673ffffffffffffffffffffffffffffffffffffffff1673ffffffffffffffffffffffffffffffffffffffff168152602001908152602001600020838154811061248357612482614433565b5b9060005260206000200181905550816011600083815260200190815260200160002081905550601060008573ffffffffffffffffffffffffffffffffffffffff1673ffffffffffffffffffffffffffffffffffffffff1681526020019081526020016000208054806124f8576124f7614462565b5b6001900381819060005260206000200160009055905550505050565b6001600681905550565b612529848484612023565b61253584848484612873565b612574576040517f08c379a000000000000000000000000000000000000000000000000000000000815260040161256b90614503565b60405180910390fd5b50505050565b60006002600083815260200190815260200160002060009054906101000a900473ffffffffffffffffffffffffffffffffffffffff169050919050565b8173ffffffffffffffffffffffffffffffffffffffff168373ffffffffffffffffffffffffffffffffffffffff1603612625576040517f08c379a000000000000000000000000000000000000000000000000000000000815260040161261c9061456f565b60405180910390fd5b80600560008573ffffffffffffffffffffffffffffffffffffffff1673ffffffffffffffffffffffffffffffffffffffff16815260200190815260200160002060008473ffffffffffffffffffffffffffffffffffffffff1673ffffffffffffffffffffffffffffffffffffffff16815260200190815260200160002060006101000a81548160ff0219169083151502179055508173ffffffffffffffffffffffffffffffffffffffff168373ffffffffffffffffffffffffffffffffffffffff167f17307eab39ab6107e8899845ad3d59bd9653f200f220920489ca2b5937696c31836040516127169190612ed3565b60405180910390a3505050565b606060405180602001604052806000815250905090565b606060006001612749846129fa565b01905060008167ffffffffffffffff811115612768576127676132cb565b5b6040519080825280601f01601f19166020018201604052801561279a5781602001600182028036833780820191505090505b509050600082602001820190505b6001156127fd578080600190039150507f3031323334353637383961626364656600000000000000000000000000000000600a86061a8153600a85816127f1576127f061458f565b5b049450600085036127a8575b819350505050919050565b612822828260405180602001604052806000815250612b4d565b5050565b60008073ffffffffffffffffffffffffffffffffffffffff166128488361257a565b73ffffffffffffffffffffffffffffffffffffffff1614159050919050565b50505050565b50505050565b60006128948473ffffffffffffffffffffffffffffffffffffffff16612ba8565b156129ed578373ffffffffffffffffffffffffffffffffffffffff1663150b7a026128bd611ecd565b8786866040518563ffffffff1660e01b81526004016128df9493929190614613565b6020604051808303816000875af192505050801561291b57506040513d601f19601f820116820180604052508101906129189190614674565b60015b61299d573d806000811461294b576040519150601f19603f3d011682016040523d82523d6000602084013e612950565b606091505b506000815103612995576040517f08c379a000000000000000000000000000000000000000000000000000000000815260040161298c90614503565b60405180910390fd5b805181602001fd5b63150b7a0260e01b7bffffffffffffffffffffffffffffffffffffffffffffffffffffffff1916817bffffffffffffffffffffffffffffffffffffffffffffffffffffffff1916149150506129f2565b600190505b949350505050565b600080600090507a184f03e93ff9f4daa797ed6e38ed64bf6a1f0100000000000000008310612a58577a184f03e93ff9f4daa797ed6e38ed64bf6a1f0100000000000000008381612a4e57612a4d61458f565b5b0492506040810190505b6d04ee2d6d415b85acef81000000008310612a95576d04ee2d6d415b85acef81000000008381612a8b57612a8a61458f565b5b0492506020810190505b662386f26fc100008310612ac457662386f26fc100008381612aba57612ab961458f565b5b0492506010810190505b6305f5e1008310612aed576305f5e1008381612ae357612ae261458f565b5b0492506008810190505b6127108310612b12576127108381612b0857612b0761458f565b5b0492506004810190505b60648310612b355760648381612b2b57612b2a61458f565b5b0492506002810190505b600a8310612b44576001810190505b80915050919050565b612b578383612bcb565b612b646000848484612873565b612ba3576040517f08c379a0000000000000000000000000000000000000000000000000000000008152600401612b9a90614503565b60405180910390fd5b505050565b6000808273ffffffffffffffffffffffffffffffffffffffff163b119050919050565b600073ffffffffffffffffffffffffffffffffffffffff168273ffffffffffffffffffffffffffffffffffffffff1603612c3a576040517f08c379a0000000000000000000000000000000000000000000000000000000008152600401612c31906146ed565b60405180910390fd5b612c4381612826565b15612c83576040517f08c379a0000000000000000000000000000000000000000000000000000000008152600401612c7a90614759565b60405180910390fd5b612c91600083836001612867565b612c9a81612826565b15612cda576040517f08c379a0000000000000000000000000000000000000000000000000000000008152600401612cd190614759565b60405180910390fd5b6001600360008473ffffffffffffffffffffffffffffffffffffffff1673ffffffffffffffffffffffffffffffffffffffff16815260200190815260200160002060008282540192505081905550816002600083815260200190815260200160002060006101000a81548173ffffffffffffffffffffffffffffffffffffffff021916908373ffffffffffffffffffffffffffffffffffffffff160217905550808273ffffffffffffffffffffffffffffffffffffffff16600073ffffffffffffffffffffffffffffffffffffffff167fddf252ad1be2c89b69c2b068fc378daa952ba7f163c4a11628f55a4df523b3ef60405160405180910390a4612de460008383600161286d565b5050565b6040518060600160405280600073ffffffffffffffffffffffffffffffffffffffff16815260200160008152602001600081525090565b6000604051905090565b600080fd5b600080fd5b60007fffffffff0000000000000000000000000000000000000000000000000000000082169050919050565b612e6881612e33565b8114612e7357600080fd5b50565b600081359050612e8581612e5f565b92915050565b600060208284031215612ea157612ea0612e29565b5b6000612eaf84828501612e76565b91505092915050565b60008115159050919050565b612ecd81612eb8565b82525050565b6000602082019050612ee86000830184612ec4565b92915050565b6000819050919050565b612f0181612eee565b82525050565b6000602082019050612f1c6000830184612ef8565b92915050565b600081519050919050565b600082825260208201905092915050565b60005b83811015612f5c578082015181840152602081019050612f41565b60008484015250505050565b6000601f19601f8301169050919050565b6000612f8482612f22565b612f8e8185612f2d565b9350612f9e818560208601612f3e565b612fa781612f68565b840191505092915050565b60006020820190508181036000830152612fcc8184612f79565b905092915050565b612fdd81612eee565b8114612fe857600080fd5b50565b600081359050612ffa81612fd4565b92915050565b60006020828403121561301657613015612e29565b5b600061302484828501612feb565b91505092915050565b600073ffffffffffffffffffffffffffffffffffffffff82169050919050565b60006130588261302d565b9050919050565b6130688161304d565b82525050565b6000602082019050613083600083018461305f565b92915050565b6130928161304d565b811461309d57600080fd5b50565b6000813590506130af81613089565b92915050565b600080604083850312156130cc576130cb612e29565b5b60006130da858286016130a0565b92505060206130eb85828601612feb565b9150509250929050565b6130fe8161304d565b82525050565b61310d81612eee565b82525050565b60608201600082015161312960008501826130f5565b50602082015161313c6020850182613104565b50604082015161314f6040850182613104565b50505050565b600060608201905061316a6000830184613113565b92915050565b60008060006060848603121561318957613188612e29565b5b6000613197868287016130a0565b93505060206131a8868287016130a0565b92505060406131b986828701612feb565b9150509250925092565b600081519050919050565b600082825260208201905092915050565b6000819050602082019050919050565b60006131fb8383613104565b60208301905092915050565b6000602082019050919050565b600061321f826131c3565b61322981856131ce565b9350613234836131df565b8060005b8381101561326557815161324c88826131ef565b975061325783613207565b925050600181019050613238565b5085935050505092915050565b6000602082019050818103600083015261328c8184613214565b905092915050565b6000602082840312156132aa576132a9612e29565b5b60006132b8848285016130a0565b91505092915050565b600080fd5b600080fd5b7f4e487b7100000000000000000000000000000000000000000000000000000000600052604160045260246000fd5b61330382612f68565b810181811067ffffffffffffffff82111715613322576133216132cb565b5b80604052505050565b6000613335612e1f565b905061334182826132fa565b919050565b600067ffffffffffffffff821115613361576133606132cb565b5b61336a82612f68565b9050602081019050919050565b82818337600083830152505050565b600061339961339484613346565b61332b565b9050828152602081018484840111156133b5576133b46132c6565b5b6133c0848285613377565b509392505050565b600082601f8301126133dd576133dc6132c1565b5b81356133ed848260208601613386565b91505092915050565b60006020828403121561340c5761340b612e29565b5b600082013567ffffffffffffffff81111561342a57613429612e2e565b5b613436848285016133c8565b91505092915050565b61344881612eb8565b811461345357600080fd5b50565b6000813590506134658161343f565b92915050565b6000806040838503121561348257613481612e29565b5b6000613490858286016130a0565b92505060206134a185828601613456565b9150509250929050565b6000806000606084860312156134c4576134c3612e29565b5b60006134d286828701612feb565b93505060206134e386828701612feb565b92505060406134f486828701612feb565b9150509250925092565b600067ffffffffffffffff821115613519576135186132cb565b5b61352282612f68565b9050602081019050919050565b600061354261353d846134fe565b61332b565b90508281526020810184848401111561355e5761355d6132c6565b5b613569848285613377565b509392505050565b600082601f830112613586576135856132c1565b5b813561359684826020860161352f565b91505092915050565b600080600080608085870312156135b9576135b8612e29565b5b60006135c7878288016130a0565b94505060206135d8878288016130a0565b93505060406135e987828801612feb565b925050606085013567ffffffffffffffff81111561360a57613609612e2e565b5b61361687828801613571565b91505092959194509250565b6000606082019050613637600083018661305f565b6136446020830185612ef8565b6136516040830184612ef8565b949350505050565b600080604083850312156136705761366f612e29565b5b600061367e858286016130a0565b925050602061368f858286016130a0565b9150509250929050565b7f4e487b7100000000000000000000000000000000000000000000000000000000600052602260045260246000fd5b600060028204905060018216806136e057607f821691505b6020821081036136f3576136f2613699565b5b50919050565b7f4552433732313a20617070726f76616c20746f2063757272656e74206f776e6560008201527f7200000000000000000000000000000000000000000000000000000000000000602082015250565b6000613755602183612f2d565b9150613760826136f9565b604082019050919050565b6000602082019050818103600083015261378481613748565b9050919050565b7f4552433732313a20617070726f76652063616c6c6572206973206e6f7420746f60008201527f6b656e206f776e6572206f7220617070726f76656420666f7220616c6c000000602082015250565b60006137e7603d83612f2d565b91506137f28261378b565b604082019050919050565b60006020820190508181036000830152613816816137da565b9050919050565b7f4552433732313a2063616c6c6572206973206e6f7420746f6b656e206f776e6560008201527f72206f7220617070726f76656400000000000000000000000000000000000000602082015250565b6000613879602d83612f2d565b91506138848261381d565b604082019050919050565b600060208201905081810360008301526138a88161386c565b9050919050565b7f4e6f74206f7267616e697a657200000000000000000000000000000000000000600082015250565b60006138e5600d83612f2d565b91506138f0826138af565b602082019050919050565b60006020820190508181036000830152613914816138d8565b9050919050565b7f4e6f742073656c6c657200000000000000000000000000000000000000000000600082015250565b6000613951600a83612f2d565b915061395c8261391b565b602082019050919050565b6000602082019050818103600083015261398081613944565b9050919050565b7f4e6f74206c697374656400000000000000000000000000000000000000000000600082015250565b60006139bd600a83612f2d565b91506139c882613987565b602082019050919050565b600060208201905081810360008301526139ec816139b0565b9050919050565b7f546f6f206c6974746c6520455448000000000000000000000000000000000000600082015250565b6000613a29600e83612f2d565b9150613a34826139f3565b602082019050919050565b60006020820190508181036000830152613a5881613a1c565b9050919050565b7f4c697374696e6720657870697265640000000000000000000000000000000000600082015250565b6000613a95600f83612f2d565b9150613aa082613a5f565b602082019050919050565b60006020820190508181036000830152613ac481613a88565b9050919050565b7f4e6f74206f776e65720000000000000000000000000000000000000000000000600082015250565b6000613b01600983612f2d565b9150613b0c82613acb565b602082019050919050565b60006020820190508181036000830152613b3081613af4565b9050919050565b7f4552433732313a20696e76616c696420746f6b656e2049440000000000000000600082015250565b6000613b6d601883612f2d565b9150613b7882613b37565b602082019050919050565b60006020820190508181036000830152613b9c81613b60565b9050919050565b7f4552433732313a2061646472657373207a65726f206973206e6f74206120766160008201527f6c6964206f776e65720000000000000000000000000000000000000000000000602082015250565b6000613bff602983612f2d565b9150613c0a82613ba3565b604082019050919050565b60006020820190508181036000830152613c2e81613bf2565b9050919050565b60008190508160005260206000209050919050565b60006020601f8301049050919050565b600082821b905092915050565b600060088302613c977fffffffffffffffffffffffffffffffffffffffffffffffffffffffffffffffff82613c5a565b613ca18683613c5a565b95508019841693508086168417925050509392505050565b6000819050919050565b6000613cde613cd9613cd484612eee565b613cb9565b612eee565b9050919050565b6000819050919050565b613cf883613cc3565b613d0c613d0482613ce5565b848454613c67565b825550505050565b600090565b613d21613d14565b613d2c818484613cef565b505050565b5b81811015613d5057613d45600082613d19565b600181019050613d32565b5050565b601f821115613d9557613d6681613c35565b613d6f84613c4a565b81016020851015613d7e578190505b613d92613d8a85613c4a565b830182613d31565b50505b505050565b600082821c905092915050565b6000613db860001984600802613d9a565b1980831691505092915050565b6000613dd18383613da7565b9150826002028217905092915050565b613dea82612f22565b67ffffffffffffffff811115613e0357613e026132cb565b5b613e0d82546136c8565b613e18828285613d54565b600060209050601f831160018114613e4b5760008415613e39578287015190505b613e438582613dc5565b865550613eab565b601f198416613e5986613c35565b60005b82811015613e8157848901518255600182019150602085019450602081019050613e5c565b86831015613e9e5784890151613e9a601f891682613da7565b8355505b6001600288020188555050505b505050505050565b7f5072696365206d757374206265203e2030000000000000000000000000000000600082015250565b6000613ee9601183612f2d565b9150613ef482613eb3565b602082019050919050565b60006020820190508181036000830152613f1881613edc565b9050919050565b7f4d75737420626520696e20667574757265000000000000000000000000000000600082015250565b6000613f55601183612f2d565b9150613f6082613f1f565b602082019050919050565b60006020820190508181036000830152613f8481613f48565b9050919050565b7f417070726f76616c207265717569726564000000000000000000000000000000600082015250565b6000613fc1601183612f2d565b9150613fcc82613f8b565b602082019050919050565b60006020820190508181036000830152613ff081613fb4565b9050919050565b600060408201905061400c6000830185612ef8565b6140196020830184612ef8565b9392505050565b600081905092915050565b600061403682612f22565b6140408185614020565b9350614050818560208601612f3e565b80840191505092915050565b6000614068828561402b565b9150614074828461402b565b91508190509392505050565b7f4576656e74207061737365640000000000000000000000000000000000000000600082015250565b60006140b6600c83612f2d565b91506140c182614080565b602082019050919050565b600060208201905081810360008301526140e5816140a9565b9050919050565b7f536f6c64206f7574000000000000000000000000000000000000000000000000600082015250565b6000614122600883612f2d565b915061412d826140ec565b602082019050919050565b6000602082019050818103600083015261415181614115565b9050919050565b7f496e636f7272656374204554482073656e740000000000000000000000000000600082015250565b600061418e601283612f2d565b915061419982614158565b602082019050919050565b600060208201905081810360008301526141bd81614181565b9050919050565b7f4e487b7100000000000000000000000000000000000000000000000000000000600052601160045260246000fd5b60006141fe82612eee565b91507fffffffffffffffffffffffffffffffffffffffffffffffffffffffffffffffff82036142305761422f6141c4565b5b600182019050919050565b600061424682612eee565b915061425183612eee565b9250828201905080821115614269576142686141c4565b5b92915050565b7f4552433732313a207472616e736665722066726f6d20696e636f72726563742060008201527f6f776e6572000000000000000000000000000000000000000000000000000000602082015250565b60006142cb602583612f2d565b91506142d68261426f565b604082019050919050565b600060208201905081810360008301526142fa816142be565b9050919050565b7f4552433732313a207472616e7366657220746f20746865207a65726f2061646460008201527f7265737300000000000000000000000000000000000000000000000000000000602082015250565b600061435d602483612f2d565b915061436882614301565b604082019050919050565b6000602082019050818103600083015261438c81614350565b9050919050565b7f5265656e7472616e637947756172643a207265656e7472616e742063616c6c00600082015250565b60006143c9601f83612f2d565b91506143d482614393565b602082019050919050565b600060208201905081810360008301526143f8816143bc565b9050919050565b600061440a82612eee565b915061441583612eee565b925082820390508181111561442d5761442c6141c4565b5b92915050565b7f4e487b7100000000000000000000000000000000000000000000000000000000600052603260045260246000fd5b7f4e487b7100000000000000000000000000000000000000000000000000000000600052603160045260246000fd5b7f4552433732313a207472616e7366657220746f206e6f6e20455243373231526560008201527f63656976657220696d706c656d656e7465720000000000000000000000000000602082015250565b60006144ed603283612f2d565b91506144f882614491565b604082019050919050565b6000602082019050818103600083015261451c816144e0565b9050919050565b7f4552433732313a20617070726f766520746f2063616c6c657200000000000000600082015250565b6000614559601983612f2d565b915061456482614523565b602082019050919050565b600060208201905081810360008301526145888161454c565b9050919050565b7f4e487b7100000000000000000000000000000000000000000000000000000000600052601260045260246000fd5b600081519050919050565b600082825260208201905092915050565b60006145e5826145be565b6145ef81856145c9565b93506145ff818560208601612f3e565b61460881612f68565b840191505092915050565b6000608082019050614628600083018761305f565b614635602083018661305f565b6146426040830185612ef8565b818103606083015261465481846145da565b905095945050505050565b60008151905061466e81612e5f565b92915050565b60006020828403121561468a57614689612e29565b5b60006146988482850161465f565b91505092915050565b7f4552433732313a206d696e7420746f20746865207a65726f2061646472657373600082015250565b60006146d7602083612f2d565b91506146e2826146a1565b602082019050919050565b60006020820190508181036000830152614706816146ca565b9050919050565b7f4552433732313a20746f6b656e20616c7265616479206d696e74656400000000600082015250565b6000614743601c83612f2d565b915061474e8261470d565b602082019050919050565b6000602082019050818103600083015261477281614736565b905091905056fea264697066735822122001d7ea0999776396caedb19c74aeb6e8b689d34e87dc556f4893399786873b9e64736f6c63430008110033",
  "linkReferences": {},
  "deployedLinkReferences": {}
}